:100000000C942A000C9447000C9447000C94470071
:100010000C9447000C9447000C9447000C94820504
:100020000C9447000C9447000C9447000C94470034
:100030000C9447000C9447000C9447000C94470024
:100040000C9447000C9447000C9447000C94470014
:100050000C94470011241FBECFE5D8E0DEBFCDBF12
:1000600010E0A0E6B0E0E8EAFBE102C005900D92E6
:10007000AC36B107D9F726E0ACE6B0E001C01D927E
:10008000AA3BB207E1F70E942C010C94D20D0C940C
:100090000000CF93C82F65B36F70807F682B82E01C
:1000A0000E94090285B38E7F85BB85B3846085BBC2
:1000B00089EF90E00197F1F700C0000085B38B7FD6
:1000C00085BB65B320E1C29FC00111246F70682B0E
:1000D00082E00E94090285B38E7F85BB85B3846070
:1000E00085BB89EF90E00197F1F700C0000085B370
:1000F0008B7F85BBCF91089561E082E00E94DD0196
:1001000060E082E00E94090283E30E94490082E3EA
:100110000E94490088E20E9449008EE00E94490046
:1001200081E00E94490083EF91E00197F1F700C060
:10013000000086E00E9449000895CF93C82F65B360
:100140006F70807F682B82E00E94090285B3816016
:1001500085BB85B3846085BB89EF90E00197F1F79B
:1001600000C0000085B38B7F85BB65B320E1C29FD3
:10017000C00111246F70682B82E00E94090285B3D0
:10018000816085BB85B3846085BB89EF90E0019772
:10019000F1F700C0000085B38B7F85BBCF91089538
:1001A0000F931F93CF93DF938C01C0E0D0E003C087
:1001B0000E949D002196F801EC0FFD1F80818111A6
:1001C000F7CFDF91CF911F910F91089581E00E94A9
:1001D0004900089540E00E94680108950E941902B4
:1001E00008950E947C0060E080E00E94EA00809117
:1001F000B8069091B9060E940F0AF3CF6AEF70E03B
:100200008091B6069091B7060E945F078130B1F7E2
:100210000E94E60081E690E00E94D0002FE38DE08E
:1002200093E0215080409040E1F700C000000E9420
:10023000E600E4CF60E080E00E94EE008130D1F77C
:1002400020E040E050E060E070E08091B6069091E0
:10025000B7060E94CD06EECFEF92FF920F9360E0BB
:1002600081E00E94C1069093B7068093B6060F2ED8
:10027000F8EBEF2EF6E0FF2EF02D03E020E030E06B
:1002800045E550E060E070E081EF90E00E94BB093E
:10029000E12CF12C02E020E030E045E550E060E0A8
:1002A00070E08EEF90E00E94BB0901E020E030E0BA
:1002B00045E550E060E070E08AE191E00E94BB0912
:1002C0000E94600A80E090E00F91FF90EF90089507
:1002D000813011F130F08230D1F1833009F452C015
:1002E0000895413059F42AB381E090E002C0880FAC
:1002F000991F6A95E2F7822B8ABB089541115CC071
:100300002AB381E090E002C0880F991F6A95E2F756
:10031000809582238ABB0895413059F427B381E048
:1003200090E002C0880F991F6A95E2F7822B87BB85
:100330000895411141C027B381E090E002C0880FC9
:10034000991F6A95E2F78095822387BB0895413013
:1003500059F424B381E090E002C0880F991F6A9598
:10036000E2F7822B84BB0895411126C024B381E0BB
:1003700090E002C0880F991F6A95E2F7809582236A
:1003800084BB0895413059F421B381E090E002C06C
:10039000880F991F6A95E2F7822B81BB089541115E
:1003A0000BC021B381E090E002C0880F991F6A95CD
:1003B000E2F78095822381BB0895813079F028F09F
:1003C0008230A9F08330E1F00895613019F48FEFA5
:1003D0008ABB089561111CC01ABA0895613019F4DE
:1003E0008FEF87BB0895611113C017BA089561306C
:1003F00019F48FEF84BB089561110AC014BA0895EF
:10040000613019F48FEF81BB0895611101C011BAF9
:100410000895813041F028F0823039F0833039F08E
:1004200008956BBB089568BB089565BB089562BBD2
:100430000895813079F028F08230A9F08330E1F01E
:1004400024C089B390E002C0959587956A95E2F73C
:100450008170089586B390E002C0959587956A955E
:10046000E2F78170089583B390E002C09595879577
:100470006A95E2F78170089580B390E002C0959587
:1004800087956A95E2F78170089580E00895E8E71E
:10049000F0E0ACE7B0E0B183A08313821282E4E520
:1004A000F6E0F0937700E0937600138212821182D7
:1004B000108288ED95E013969C938E931297ED939E
:1004C000FC939093730080937200909375008093D7
:1004D000740080E090E890936D0080936C00089524
:1004E000CF93DF93EC01A8E7B0E001C0DF01ED910D
:1004F000FC911197EC17FD07C8F312968D919C9112
:1005000013979D01280F391FC217D30749F42A8179
:100510003B81820F931F13969C938E931297ED014C
:100520008A819B819E01280F391FE217F307C1F4CE
:100530002091760030917700E217F30771F0228165
:100540003381820F931F9B838A83ED91FC911197D6
:10055000808191819983888305C03983288302C073
:10056000F983E883CA17DB0711F0CD93DC93DF91A1
:10057000CF910895EF92FF920F931F93CF93DF9344
:100580008C010E948C0A8091760090917700892BD3
:1005900011F40E94470280916C0090916D008023BD
:1005A0009123892B09F077C00115110549F0C80185
:1005B00004960817190718F000E010E001C08C013C
:1005C0000115110509F46AC08091740090917500BD
:1005D0008017910708F465C0C0917800D091790028
:1005E000E8E7F0E002C0FE01EC018A819B81801700
:1005F000910720F4888199810097A9F7809176006E
:1006000090917700C817D90709F44EC0E080F180B7
:1006100084E0E80EF11C88819981918380832A818E
:100620003B81201B310B2930310550F0CE01800F6A
:10063000911FFC01338322831B830A830E94700273
:100640002A813B818091740090917500821B930BED
:1006500090937500809374004091720050917300E4
:100660008417950720F49093730080937200809113
:100670006C0090916D00282B392B3B832A831982C3
:100680001882809170009091710001969093710092
:10069000809370000BC0E12CF12C08C0E12CF12CF0
:1006A00005C0E12CF12C02C0E12CF12C0E94500B72
:1006B000C701DF91CF911F910F91FF90EF900895A7
:1006C0000F931F93CF93DF93009799F1EC01249739
:1006D0004A815B8120916C0030916D00BA016223E8
:1006E0007323672B31F168817981672B11F5209590
:1006F0003095242335233B832A830E948C0A8A81E8
:100700009B812091740030917500820F931F90930C
:10071000750080937400CE010E94700280916E007B
:1007200090916F00019690936F0080936E000E94ED
:10073000500BDF91CF911F910F910895FC0103960B
:10074000928381832FEF3FEF3483238396838583C6
:100750009087878310820895FC0111861086089582
:10076000CF93DF939C01FB01DC011196CD91DC91CD
:100770001297D383C2838C819D81958384838C81DE
:100780009D81DC0113967C936E9312977D836C831D
:1007900031872087F90180818F5F8083DF91CF913E
:1007A0000895CF93DF93EB01488159814F3F2FEF9D
:1007B000520721F4FC01A781B0850DC0DC0113961E
:1007C00001C0DF011296ED91FC91139720813181D8
:1007D00042175307B0F71296ED91FC911397FB83E4
:1007E000EA83D583C483BD83AC831396DC93CE9315
:1007F000129799878887FC0120812F5F2083DF91E2
:10080000CF910895CF93DF93FC01A085B185C2817C
:10081000D381848195819D838C83C481D58182819C
:1008200093819B838A8311968D919C911297E817EF
:10083000F90731F48481958112969C938E931197D8
:10084000118610868C9181508C938C91DF91CF9181
:1008500008951BBC8EE08ABD8BE08EBD89B7806198
:1008600089BF089531E1FC013083319722E2208372
:100870003197A3E3A08331976083319770833197D9
:100880001082319760E8608331971082319762E07F
:100890006083319763E06083319764E060833197D0
:1008A00065E06083319766E06083319767E060833D
:1008B000319768E06083319769E06083319760E148
:1008C000608331973083319732E13083319733E160
:1008D0003083319734E13083319735E1308331977C
:1008E00036E13083319737E13083319738E1308317
:1008F000319739E13083319730E23083319731E2FB
:10090000308331972083319723E2208331974083CE
:1009100031975083319726E22083319727E2208355
:10092000319728E22083319729E22083319720E311
:100930002083319721E32083869708950E9429041C
:10094000A091B406B091B506CD91CDBFDD91DEBFCB
:10095000FF91EF91DF91CF91BF91AF919F918F91D7
:100960007F916F915F914F913F912F911F910F91C7
:10097000FF90EF90DF90CF90BF90AF909F908F90BF
:100980007F906F905F904F903F902F901F900F90AF
:100990000FBE0F90089581E008950F920FB6F8945E
:1009A0000F921F9211242F923F924F925F926F925B
:1009B0007F928F929F92AF92BF92CF92DF92EF92EF
:1009C000FF920F931F932F933F934F935F936F93D8
:1009D0007F938F939F93AF93BF93CF93DF93EF93C7
:1009E000FF93A091B406B091B5060DB60D920EB668
:1009F0000D920E94C60BA091B406B091B506CD91A0
:100A0000CDBFDD91DEBFFF91EF91DF91CF91BF911F
:100A1000AF919F918F917F916F915F914F913F9196
:100A20002F911F910F91FF90EF90DF90CF90BF908B
:100A3000AF909F908F907F906F905F904F903F907E
:100A40002F901F900F900FBE0F9008950F920FB62A
:100A5000F8940F921F9211242F923F924F925F921F
:100A60006F927F928F929F92AF92BF92CF92DF92BE
:100A7000EF92FF920F931F932F933F934F935F93A8
:100A80006F937F938F939F93AF93BF93CF93DF9396
:100A9000EF93FF93A091B406B091B5060DB60D92F9
:100AA0000EB60D920E94920A81110E94C60BA0916F
:100AB000B406B091B506CD91CDBFDD91DEBFFF91FB
:100AC000EF91DF91CF91BF91AF919F918F917F91E6
:100AD0006F915F914F913F912F911F910F91FF90D7
:100AE000EF90DF90CF90BF90AF909F908F907F90CE
:100AF0006F905F904F903F902F901F900F900FBE80
:100B00000F9008950E9426051895DC0151962C91AE
:100B10005197222341F05696ED91FC915797908181
:100B200084E0891B089580E008950FB6F8940F9231
:100B3000FC01828D811102C081E001C080E00F9034
:100B40000FBE08950FB6F8940F92FC01228D838D8D
:100B5000281302C081E001C080E00F900FBE08950D
:100B60000F931F93CF93DF93EC01042F1A8D4C8DBD
:100B700041110CC088819981892B09F042C08C8178
:100B80009D810E94270D1D821C8242C0011117C049
:100B900050E08A819B810E94C90D2C8D8A819B81A6
:100BA000820F911D9B838A832C813D81821793073D
:100BB00050F1888199819B838A8380E029C050E02D
:100BC0008E819F810E94C90D8C8D90E091958195B9
:100BD00091092E813F81280F391F3F832E83488141
:100BE00059812417350730F42C813D81820F931FE2
:100BF0009F838E83023049F4112349F0115080E025
:100C000007C080E005C080E003C080E001C080E054
:100C10001F5F1A8FDF91CF911F910F9108951F933E
:100C2000CF93DF93EC010FB6F8940F921E8D0BC09B
:100C30008989882351F0CE0141960E942C0C8111A4
:100C40000E94B10C115011169CF38FEF8E8F0F90F4
:100C50000FBE0FB6F8940F921D8D0BC088858823A8
:100C600051F0CE0108960E942C0C81110E94B10C0B
:100C7000115011169CF38FEF8D8F0F900FBEDF91E7
:100C8000CF911F910895CF93DF93EC010FB6F894A5
:100C90000F92E881F9818B8D2C8D90E030E0829F5E
:100CA000A001839F500D929F500D11244E0F5F1F86
:100CB0005D834C831A8EFB83EA830197289FA001F2
:100CC000299F500D389F500D1124CF01840F951F7F
:100CD0009F838E838FEF8D8F8E8F61110CC08885DF
:100CE000882389F0CE0108960E942C0C882359F0A5
:100CF0000E94CD0408C0CE0108960E949E03CE013A
:100D000041960E949E030F900FBE81E0DF91CF912C
:100D100008950F931F93F801611103C0118300839D
:100D200002C051834083838F648F61E0CF010E94B2
:100D300043061F910F910895DF92EF92FF920F9358
:100D40001F93CF93DF93F82EE62ED42E869FC001FB
:100D500011244F960E94BA02EC01009749F08C01D1
:100D60002D2DAC01415E5F4F6E2D8F2D0E948906A7
:100D7000CE01DF91CF911F910F91FF90EF90DF9007
:100D80000895CF93C62F42E060E00E949C06009732
:100D900011F0FC01C28FCF910895CF92DF92EF92B4
:100DA000FF920F931F93CF93DF9300D000D01F9239
:100DB000CDB7DEB78C017B015D834C83C22ED12C75
:100DC0000FB6F8940F92F801928D838D981718F052
:100DD000F2E0CF1219C04C2DB701C8010E94B00536
:100DE000F8019189992349F0C80141960E942C0C81
:100DF000882331F00E94CD0403C081110E94CD04EC
:100E00000F900FBE81E04DC08C819D81892B21F414
:100E10000F900FBE80E045C0D11006C0CE010196F4
:100E20000E94740CDD24D3940F900FBE0E948C0A94
:100E30000FB6F8940F92F801858D8F3F09F4158E47
:100E4000F801868D8F3F09F4168E0F900FBEBE01FC
:100E50006C5F7F4FCE0101960E947F0C81111BC0F9
:100E6000C8010E94A205882381F06C817D81C801A0
:100E700008960E941A0CC8010E940F060E94500B8F
:100E800081119ECF0E94CD049BCFC8010E940F0606
:100E90000E94500B95CFC8010E940F060E94500B74
:100EA00080E00F900F900F900F900F90DF91CF91F7
:100EB0001F910F91FF90EF90DF90CF900895EF92E8
:100EC000FF920F931F93CF93DF9300D000D01F9218
:100ED000CDB7DEB78C017D836C83E12CF12C0FB68E
:100EE000F8940F92F801828D8823D1F08150828F7F
:100EF00080819181892B29F40E94B70DF801958397
:100F00008483F8018085882339F0C80108960E94FF
:100F10002C0C81110E94CD040F900FBE81E074C093
:100F20008C819D81892B21F40F900FBE80E06CC0D5
:100F3000F11006C0CE0101960E94740CFF24F394B8
:100F40000F900FBE0E948C0A0FB6F8940F92F80112
:100F5000858D8F3F09F4158EF801868D8F3F09F43A
:100F6000168E0F900FBEBE016C5F7F4FCE010196B3
:100F70000E947F0C81112AC0C8010E949505882318
:100F8000F9F0F80180819181892B51F40FB6F89422
:100F90000F92848195810E94B50CE82E0F900FBEB0
:100FA0006C817D81C80141960E941A0CC8010E9483
:100FB0000F060E94500B811192CF0E94CD048FCF5B
:100FC000C8010E940F060E94500B89CFC8010E94E1
:100FD0000F060E94500BC8010E949505882309F452
:100FE0007ECFEE2081F00FB6F8940F92C8010E94D8
:100FF0008505682FF801848195810E94670D0F9007
:101000000FBE80E001C080E00F900F900F900F9016
:101010000F90DF91CF911F910F91FF90EF90089566
:10102000E0917C06F0917D068081811107C08FEFF1
:101030009FEF90935C0680935B060895E0917C0699
:10104000F0917D060580F681E02D8081918190935D
:101050005C0680935B060895CF93DF93EC018F8944
:10106000988D0E946003CE010E946003DF91CF91B2
:1010700008956F927F928F929F92AF92BF92CF927C
:10108000DF92EF920F931F93CF93DF93CDB7DEB72D
:101090004C01D50157968D919C915897215031095B
:1010A0003C01620E731E6115710589F416C0822F12
:1010B00090E0FB01E80FF91F3081D501A80FB91F9F
:1010C00059963C938081882329F02F5F01C020E04E
:1010D000283068F3F50110A203C0D50159961C927F
:1010E000B3E0BE1520F40F2EF3E0EF2EF02DF50146
:1010F000E68AE1A212A2C50102960E94AC03C501D4
:101100000C960E94AC03D5011996BC92AE9218972A
:1011100084E090E08E1991091D969C938E931C9704
:101120005396BC92AE92529784E0F501B396DF01DC
:101130001D928A95E9F7F50117A2A801B401C30130
:101140000E943204D5018D939C93C114D10419F0EF
:10115000F601B182A082DF91CF911F910F91EF90A4
:10116000DF90CF90BF90AF909F908F907F906F90C7
:101170000895CF93C0E010C08C2F90E09C01220F07
:10118000331F220F331F220F331F820F931F8057ED
:10119000994F0E949E03CF5FC43070F387E896E0BA
:1011A0000E949E038EE796E00E949E0381E796E0F0
:1011B0000E949E0388E696E00E949E0387E896E0E0
:1011C00090937D0680937C068EE796E090937B0655
:1011D00080937A06CF910895CF93DF93EC010FB6F9
:1011E000F8940F92809166068F5F809366068091D7
:1011F000B4069091B506892B59F4D093B506C093E7
:10120000B40680916606813099F40E94B90810C036
:101210008091620681110CC0E091B406F091B50690
:1012200096898E89891720F0D093B506C093B406AD
:1012300080915D068F5F80935D068E899091630635
:10124000981710F48093630690E09C01220F331FDF
:10125000220F331F220F331F820F931FBE016E5FB9
:101260007F4F8057994F0E94B0030F900FBE80911F
:101270006206882351F0E091B406F091B506968994
:101280008E89981710F40E94CD04DF91CF910895B4
:10129000CF93DF931CC00FB6F8940F92E0916D06C8
:1012A000F0916E06C681D781CE0102960E9402049B
:1012B0008091660681508093660680916706815012
:1012C000809367060F900FBECE010E942C0880917C
:1012D00067068111E0CFDF91CF9108950E94480900
:1012E000809190068230D0F30E94CD04F7CF0F9307
:1012F0001F93CF93DF93EC01009164061091650674
:101300008091B4069091B50602960E940204C00F27
:10131000D11FE091B406F091B506D383C283C01704
:10132000D10768F46091B4067091B50680917A0691
:1013300090917B066E5F7F4F0E94D10317C0609132
:10134000B4067091B50680917C0690917D066E5F23
:101350007F4F0E94D10380915B0690915C06C81775
:10136000D90720F4D0935C06C0935B06DF91CF9140
:101370001F910F9108952F923F924F925F926F921B
:101380007F928F929F92AF92BF92CF92DF92EF9215
:10139000FF920F931F93CF93DF933C011B015A01E0
:1013A0002901CA010E94BA026C01892B71F088E2FE
:1013B00090E00E94BA02EC01892B19F0D88ECF8AF6
:1013C00006C0C6010E94600302C0C0E0D0E02097C2
:1013D00091F0950140E050E0812C912C5E01670175
:1013E000E02E8201B101C3010E943908CE010E94A2
:1013F000EC0881E001C08FEFDF91CF911F910F9139
:10140000FF90EF90DF90CF90BF90AF909F908F9024
:101410007F906F905F904F903F902F9008950F9323
:101420001F93CF93DF93EC010FB6F8940F92892BA3
:1014300021F4C091B406D091B5068E010E5F1F4F06
:10144000C8010E9402048C899D89892B21F0CE015C
:101450000C960E94020480915D068F5F80935D066A
:101460008091B4069091B506C817D90759F4B80110
:1014700088E696E00E94B003809167068F5F8093B4
:1014800067060AC080916606815080936606CE0189
:101490000E942C080E9410080F900FBE80916206D7
:1014A000882349F08091B4069091B506C817D907F2
:1014B00011F40E94CD04DF91CF911F910F910895F7
:1014C000EF92FF920F930F2EF9E5EF2EF6E0FF2E2D
:1014D000F02D00E020E030E045E550E066E670E009
:1014E0008EE699E00E94BB09813081F4F8948FEF79
:1014F0009FEF90935C0680935B0681E08093620689
:1015000010926506109264060E949E04809160000D
:101510000F91FF90EF900895809158068F5F809310
:1015200058060895DF92EF92FF920F931F93CF9387
:10153000DF938091580681119DC0E0906406F09081
:1015400065068FEFE81AF80AF0926506E0926406E5
:10155000E114F104B9F480917C0690917D0620910C
:101560007A0630917B0630937D0620937C0690931B
:101570007B0680937A0680915E068F5F80935E067D
:101580000E94100880915B0690915C06E816F906AF
:1015900028F4D12C53C0DD24D39401C0D12CE09188
:1015A0007C06F0917D068081811107C08FEF9FEF4F
:1015B00090935C0680935B0641C0E0917C06F091BD
:1015C0007D060580F681E02DC681D7818A819B81C9
:1015D000E816F90628F490935C0680935B062EC00B
:1015E0008E010E5F1F4FC8010E9402048C899D89E5
:1015F000892B21F0CE010C960E9402048E899091D5
:101600006306981710F48093630690E09C01220F04
:10161000331F220F331F220F331F820F931FB80176
:101620008057994F0E94B0039E89E091B406F091D3
:10163000B5068689981708F0AECFB1CFE091B40611
:10164000F091B506868990E0FC01EE0FFF1FEE0FCA
:10165000FF1FEE0FFF1F8E0F9F1FFC01E057F94F7A
:101660008081823010F0DD24D39480915F06811157
:101670000CC00DC080916006909161060196909318
:10168000610680936006D12C02C0DD24D3948D2D99
:10169000DF91CF911F910F91FF90EF90DF90089510
:1016A0000F931F93CF93DF930FB6F8940F9280910F
:1016B00058068150809358068091580681115CC06D
:1016C00080916606811133C05AC0E0917606F09190
:1016D0007706C681D781CE010C960E9402048E0146
:1016E0000E5F1F4FC8010E9402048E89909163060D
:1016F000981710F48093630690E09C01220F331F2B
:10170000220F331F220F331F820F931FB801805700
:10171000994F0E94B0039E89E091B406F091B506FE
:101720008689981730F081E080935F0602C0C0E0A0
:10173000D0E0809171068111C8CFCD2B11F00E94AD
:101740001008C0916006D0916106209769F00E9450
:10175000920A882319F081E080935F062197B9F7F8
:10176000109261061092600680915F06882331F026
:101770000E94CD0481E003C080E001C080E00F90B2
:101780000FBEDF91CF911F910F9108958091580660
:10179000882321F081E080935F06089510925F0610
:1017A0002091630601C02150822F90E0FC01EE0FD2
:1017B000FF1FEE0FFF1FEE0FFF1FE80FF91FE0578F
:1017C000F94F3081332379F3AC01440F551F440F97
:1017D000551F440F551F480F591FDF010180F2812B
:1017E000E02D0280F381E02D1296FC93EE93119789
:1017F0004D56594FE417F50729F442815381FD01F5
:1018000052834183FC01EE0FFF1FEE0FFF1FEE0F0F
:10181000FF1F8E0F9F1FFC01E057F94F0180F281DF
:10182000E02D868197819093B5068093B40620932E
:1018300063060895CF93DF93EB016091B406709136
:10184000B506645F7F4F0E94D10361E0CE010E9424
:101850007709DF91CF9108950F931F93CF93DF9373
:10186000DC011596ED91FC911697C681D7818E010A
:10187000045F1F4FC8010E94020480915806811125
:101880001CC00A501109C8010E9402048E8990915F
:101890006306981710F48093630690E09C01220F72
:1018A000331F220F331F220F331F820F931FB801E4
:1018B0008057994F0E94B00305C0B80181E796E0B8
:1018C0000E94B0039E89E091B406F091B506868926
:1018D000891720F481E080935F0601C080E0DF91EA
:1018E000CF911F910F91089520915E06FC012083F6
:1018F0002091640630916506328321830895CF9349
:10190000DF930FB6F8940F924091640650916506EC
:10191000EC0129813A81DA01A21BB30BF881E09135
:101920005E06FE1741F04217530728F0FB011182B3
:10193000108281E011C0EB0128813981A217B30721
:1019400040F42A1B3B0B398328830E94740C80E0EF
:1019500003C01982188281E00F900FBEDF91CF91F2
:10196000089581E080935F0608950F931F93CF93AE
:10197000DF93FC01892B09F462C02689A091B4068B
:10198000B091B50656968C91281708F04EC0848504
:101990009585992364F0A091B406B091B50656964A
:1019A0003C9184E090E0831B910995878487828530
:1019B000938530E0A901440F551F440F551F440F74
:1019C000551F240F351F2057394F8217930721F5D4
:1019D0008F01EF012296CE010E940204E091B4062D
:1019E000F091B5068689F801868B90916306981769
:1019F00010F48093630690E09C01220F331F220FA6
:101A0000331F220F331F820F931FBE018057994F40
:101A10000E94B00381E016C0A091B406B091B50653
:101A200056968C91868B81E00DC091A1E091B40611
:101A3000F091B5068689981720F080E003C080E019
:101A400001C081E0DF91CF911F910F9108950F9315
:101A50001F93CF93DF93FC01892B79F182A18150F1
:101A600082A3268991A1291751F181112AC0EF0182
:101A70008F010E5F1F4FC8010E94020489A18E8B47
:101A800024E030E0281B31093D872C8790916306C4
:101A9000981710F48093630690E09C01220F331F87
:101AA000220F331F220F331F820F931FB80180575D
:101AB000994F0E94B00381E005C080E003C080E040
:101AC00001C080E0DF91CF911F910F9108950F9396
:101AD0001F93CF93DF93FC01892B09F443C091A19D
:101AE000961708F4962F86899817E1F122A12130E4
:101AF000C9F5968B24853585332334F024E030E016
:101B0000291B3109358724872285338590E0AC0174
:101B1000440F551F440F551F440F551F840F951F29
:101B20008057994F28173907E9F4EF018F010E5FAD
:101B30001F4FC8010E9402048E8990916306981776
:101B400010F48093630690E09C01220F331F220F54
:101B5000331F220F331F820F931FB8018057994FF5
:101B60000E94B003DF91CF911F910F910895809152
:101B7000B4069091B506892B39F0E091B406F09146
:101B8000B50682A18F5F82A38091B4069091B506BD
:101B90000895FB01DC0102C001900D9241505040BC
:081BA000D8F70895F894FFCF77
:0C1BA80003466972650049444C4500008A
:00000001FF
