:100000000C942A000C9447000C9447000C94470071
:100010000C9447000C9447000C9447000C94400546
:100020000C9447000C9447000C9447000C94470034
:100030000C9447000C9447000C9447000C94470024
:100040000C9447000C9447000C9447000C94470014
:100050000C94470011241FBECFE5D8E0DEBFCDBF12
:1000600010E0A0E6B0E0E2EDFAE102C005900D92EA
:10007000A03CB107D9F727E0A0ECB0E001C01D9289
:10008000AC30B207E1F70E949E010C94670D0C940E
:100090000000CF93C82F65B36F70807F682B82E01C
:1000A0000E94F50185B38E7F85BB85B3846085BBD7
:1000B00089EF90E00197F1F700C0000085B38B7FD6
:1000C00085BB65B320E1C29FC00111246F70682B0E
:1000D00082E00E94F50185B38E7F85BB85B3846085
:1000E00085BB89EF90E00197F1F700C0000085B370
:1000F0008B7F85BBCF91089561E082E00E94C901AA
:1001000060E082E00E94F50183E30E94490082E3FF
:100110000E94490088E20E9449008EE00E94490046
:1001200081E00E94490083EF91E00197F1F700C060
:10013000000086E00E9449000895CF93C82F65B360
:100140006F70807F682B82E00E94F50185B381602B
:1001500085BB85B3846085BB89EF90E00197F1F79B
:1001600000C0000085B38B7F85BB65B320E1C29FD3
:10017000C00111246F70682B82E00E94F50185B3E5
:10018000816085BB85B3846085BB89EF90E0019772
:10019000F1F700C0000085B38B7F85BBCF91089538
:1001A0000F931F93CF93DF938C01C0E0D0E003C087
:1001B0000E949D002196F801EC0FFD1F80818111A6
:1001C000F7CFDF91CF911F910F91089581E00E94A9
:1001D000490008956FEF7FEF80910A0790910B0718
:1001E0000E942F07813001F50E94E60081E30E9402
:1001F0009D002FE78AE196E0215080409040E1F792
:1002000000C000000E94E60081E690E00E94D0005D
:100210002FE78AE196E0215080409040E1F700C04E
:1002200000000E94E60011C00E94E60080E790E016
:100230000E94D0002FE78AE196E021508040904054
:10024000E1F700C000000E94E60081E890E00E9413
:10025000D0002FE78AE196E0215080409040E1F7FE
:1002600000C000000E94E60020E040E050E060E0B6
:1002700070E080910A0790910B070E947F068AE048
:1002800090E00E94450BA6CF6FEF7FEF80910A07A9
:1002900090910B070E942F07813001F50E94E60024
:1002A00082E30E949D002FE78AE196E02150804082
:1002B0009040E1F700C000000E94E6008EE890E068
:1002C0000E94D0002FE78AE196E0215080409040C4
:1002D000E1F700C000000E94E60011C00E94E600A5
:1002E0008DE990E00E94D0002FE78AE196E021504E
:1002F00080409040E1F700C000000E94E6008EEAD6
:1003000090E00E94D0002FE78AE196E021508040E3
:100310009040E1F700C000000E94E60020E040E0CD
:1003200050E060E070E080910A0790910B070E9416
:100330007F068AE090E00E94450BA6CFEF92FF92E5
:100340000F930E947C0081E00E94210790930B078D
:1003500080930A07E12CF12C01E020E030E045E534
:1003600050E060E070E08AEE90E00E948B0920E0AF
:1003700030E045E550E060E070E084E491E00E9408
:100380008B090E94DF0980E090E00F91FF90EF90D1
:100390000895813079F028F08230A9F08330E1F0BF
:1003A0000895613019F48FEF8ABB089561111CC064
:1003B0001ABA0895613019F48FEF87BB089561115F
:1003C00013C017BA0895613019F48FEF84BB0895F4
:1003D00061110AC014BA0895613019F48FEF81BB1E
:1003E0000895611101C011BA0895813041F028F0DB
:1003F000823039F0833039F008956BBB089568BBC3
:10040000089565BB089562BB0895ECECF0E0A0EDA3
:10041000B0E0B183A08313821282E8EAF6E0F093A1
:10042000CB00E093CA00138212821182108288ED01
:1004300095E013969C938E931297ED93FC93909373
:10044000C7008093C6009093C9008093C80080E0E5
:1004500090E89093C1008093C0000895CF93DF93FC
:10046000EC01ACECB0E001C0DF01ED91FC91119723
:10047000EC17FD07C8F312968D919C9113979D017F
:10048000280F391FC217D30749F42A813B81820FF5
:10049000931F13969C938E931297ED018A819B81F3
:1004A0009E01280F391FE217F307C1F42091CA00FB
:1004B0003091CB00E217F30771F022813381820F74
:1004C000931F9B838A83ED91FC9111978081918189
:1004D0009983888305C03983288302C0F983E88320
:1004E000CA17DB0711F0CD93DC93DF91CF9108950C
:1004F000EF92FF920F931F93CF93DF938C010E9493
:100500000B0A8091CA009091CB00892B11F40E94B4
:1005100005028091C0009091C10080239123892B16
:1005200009F077C00115110549F0C80104960817B4
:10053000190718F000E010E001C08C010115110549
:1005400009F46AC08091C8009091C9008017910792
:1005500008F465C0C091CC00D091CD00ECECF0E087
:1005600002C0FE01EC018A819B818017910720F473
:10057000888199810097A9F78091CA009091CB005A
:10058000C817D90709F44EC0E080F18084E0E80E76
:10059000F11C88819981918380832A813B81201B72
:1005A000310B2930310550F0CE01800F911FFC0135
:1005B000338322831B830A830E942E022A813B817C
:1005C0008091C8009091C900821B930B9093C90041
:1005D0008093C8004091C6005091C70084179507CA
:1005E00020F49093C7008093C6008091C000909142
:1005F000C100282B392B3B832A83198218828091D2
:10060000C4009091C50001969093C5008093C400EA
:100610000BC0E12CF12C08C0E12CF12C05C0E12C21
:10062000F12C02C0E12CF12C0E94CF0AC701DF910E
:10063000CF911F910F91FF90EF9008950F931F930B
:10064000CF93DF93009799F1EC0124974A815B8166
:100650002091C0003091C100BA0162237323672B3F
:1006600031F168817981672B11F52095309524232C
:1006700035233B832A830E940B0A8A819B81209128
:10068000C8003091C900820F931F9093C9008093D6
:10069000C800CE010E942E028091C2009091C3003A
:1006A00001969093C3008093C2000E94CF0ADF910D
:1006B000CF911F910F910895FC010396928381833E
:1006C0002FEF3FEF3483238396838583908787833F
:1006D00010820895FC01118610860895CF93DF9350
:1006E0009C01FB01DC011196CD91DC911297D38323
:1006F000C2838C819D81958384838C819D81DC0163
:1007000013967C936E9312977D836C833187208739
:10071000F90180818F5F8083DF91CF910895CF931E
:10072000DF93EB01488159814F3F2FEF520721F4AE
:10073000FC01A781B0850DC0DC01139601C0DF016B
:100740001296ED91FC911397208131814217530746
:10075000B0F71296ED91FC911397FB83EA83D58352
:10076000C483BD83AC831396DC93CE931297998791
:100770008887FC0120812F5F2083DF91CF9108952E
:10078000CF93DF93FC01A085B185C281D3818481A1
:1007900095819D838C83C481D581828193819B8344
:1007A0008A8311968D919C911297E817F90731F47D
:1007B0008481958112969C938E9311971186108651
:1007C0008C9181508C938C91DF91CF9108951BBCBB
:1007D0008EE08ABD8BE08EBD89B7806189BF0895A8
:1007E00031E1FC013083319722E220833197A3E38A
:1007F000A08331976083319770833197108231974E
:1008000060E8608331971082319762E060833197AE
:1008100063E06083319764E06083319765E06083D3
:10082000319766E06083319767E06083319768E0D5
:100830006083319769E06083319760E1608331972D
:100840003083319732E13083319733E13083319710
:1008500034E13083319735E13083319736E13083AD
:10086000319737E13083319738E13083319739E17F
:100870003083319730E23083319731E230833197E2
:100880002083319723E2208331974083319750832F
:10089000319726E22083319727E22083319728E29F
:1008A0002083319729E22083319720E320833197F9
:1008B00021E32083869708950E94E703A09108070B
:1008C000B0910907CD91CDBFDD91DEBFFF91EF91D2
:1008D000DF91CF91BF91AF919F918F917F916F9158
:1008E0005F914F913F912F911F910F91FF90EF904A
:1008F000DF90CF90BF90AF909F908F907F906F9040
:100900005F904F903F902F901F900F900FBE0F90D1
:10091000089581E008950F920FB6F8940F921F92F8
:1009200011242F923F924F925F926F927F928F92FB
:100930009F92AF92BF92CF92DF92EF92FF920F936E
:100940001F932F933F934F935F936F937F938F9357
:100950009F93AF93BF93CF93DF93EF93FF93A091B8
:100960000807B09109070DB60D920EB60D920E94C0
:100970005B0BA0910807B0910907CD91CDBFDD9128
:10098000DEBFFF91EF91DF91CF91BF91AF919F912A
:100990008F917F916F915F914F913F912F911F9117
:1009A0000F91FF90EF90DF90CF90BF90AF909F900E
:1009B0008F907F906F905F904F903F902F901F90FF
:1009C0000F900FBE0F9008950F920FB6F8940F92EC
:1009D0001F9211242F923F924F925F926F927F92BB
:1009E0008F929F92AF92BF92CF92DF92EF92FF923F
:1009F0000F931F932F933F934F935F936F937F9327
:100A00008F939F93AF93BF93CF93DF93EF93FF9316
:100A1000A0910807B09109070DB60D920EB60D9280
:100A20000E94110A81110E945B0BA0910807B091EE
:100A30000907CD91CDBFDD91DEBFFF91EF91DF9131
:100A4000CF91BF91AF919F918F917F916F915F9166
:100A50004F913F912F911F910F91FF90EF90DF9059
:100A6000CF90BF90AF909F908F907F906F905F904E
:100A70004F903F902F901F900F900FBE0F900895B2
:100A80000E94E4041895DC0151962C915197222381
:100A900041F05696ED91FC915797908184E0891B27
:100AA000089580E008950FB6F8940F92FC01828DAE
:100AB000811102C081E001C080E00F900FBE089557
:100AC0000FB6F8940F92FC01228D838D281302C07B
:100AD00081E001C080E00F900FBE08950F931F9337
:100AE000CF93DF93EC01042F1A8D4C8D41110CC074
:100AF00088819981892B09F042C08C819D810E9457
:100B0000BC0C1D821C8242C0011117C050E08A81BA
:100B10009B810E945E0D2C8D8A819B81820F911D8D
:100B20009B838A832C813D818217930750F18881B2
:100B300099819B838A8380E029C050E08E819F81C8
:100B40000E945E0D8C8D90E09195819591092E818A
:100B50003F81280F391F3F832E83488159812417F5
:100B6000350730F42C813D81820F931F9F838E8344
:100B7000023049F4112349F0115080E007C080E0B1
:100B800005C080E003C080E001C080E01F5F1A8FD5
:100B9000DF91CF911F910F9108951F93CF93DF9312
:100BA000EC010FB6F8940F921E8D0BC08989882333
:100BB00051F0CE0141960E94C10B81110E94460C5A
:100BC000115011169CF38FEF8E8F0F900FBE0FB642
:100BD000F8940F921D8D0BC08885882351F0CE01AB
:100BE00008960E94C10B81110E94460C11501116EB
:100BF0009CF38FEF8D8F0F900FBEDF91CF911F91E0
:100C00000895CF93DF93EC010FB6F8940F92E8812B
:100C1000F9818B8D2C8D90E030E0829FA001839F25
:100C2000500D929F500D11244E0F5F1F5D834C831A
:100C30001A8EFB83EA830197289FA001299F500DFC
:100C4000389F500D1124CF01840F951F9F838E83F1
:100C50008FEF8D8F8E8F61110CC08885882389F06E
:100C6000CE0108960E94C10B882359F00E948B0484
:100C700008C0CE0108960E945C03CE0141960E94F6
:100C80005C030F900FBE81E0DF91CF9108950F9329
:100C90001F93F801611103C01183008302C05183C7
:100CA0004083838F648F61E0CF010E9401061F9112
:100CB0000F910895DF92EF92FF920F931F93CF93BE
:100CC000DF93F82EE62ED42E869FC00111244F9676
:100CD0000E947802EC01009749F08C012D2DAC01A7
:100CE000415E5F4F6E2D8F2D0E944706CE01DF9132
:100CF000CF911F910F91FF90EF90DF900895CF92C9
:100D0000DF92EF92FF920F931F93CF93DF9300D068
:100D100000D01F92CDB7DEB78C017B015D834C8381
:100D2000C22ED12C0FB6F8940F92F801928D838DBC
:100D3000981718F0F2E0CF1219C04C2DB701C80176
:100D40000E946E05F8019189992349F0C8014196E6
:100D50000E94C10B882331F00E948B0403C08111D3
:100D60000E948B040F900FBE81E04DC08C819D814D
:100D7000892B21F40F900FBE80E045C0D11006C032
:100D8000CE0101960E94090CDD24D3940F900FBE72
:100D90000E940B0A0FB6F8940F92F801858D8F3FD1
:100DA00009F4158EF801868D8F3F09F4168E0F9089
:100DB0000FBEBE016C5F7F4FCE0101960E94140CE6
:100DC00081111BC0C8010E946005882381F06C81DD
:100DD0007D81C80108960E94AF0BC8010E94CD0515
:100DE0000E94CF0A81119ECF0E948B049BCFC80125
:100DF0000E94CD050E94CF0A95CFC8010E94CD0563
:100E00000E94CF0A80E00F900F900F900F900F90EC
:100E1000DF91CF911F910F91FF90EF90DF90CF90D6
:100E20000895009769F0FC011582148211821082E6
:100E3000168220E040E050E060E070E00E947F0613
:100E40000895CF93DF93482F60E081E00E945A0617
:100E5000EC010E941107CE01DF91CF910895EF922E
:100E6000FF920F931F93CF93DF9300D000D01F9278
:100E7000CDB7DEB78C017D836C83E12CF12C0FB6EE
:100E8000F8940F92F801828D8823D1F08150828FDF
:100E900080819181892B29F40E944C0DF801958362
:100EA0008483F8018085882339F0C80108960E9460
:100EB000C10B81110E948B040F900FBE81E074C0A2
:100EC0008C819D81892B21F40F900FBE80E06CC036
:100ED000F11006C0CE0101960E94090CFF24F39484
:100EE0000F900FBE0E940B0A0FB6F8940F92F801F4
:100EF000858D8F3F09F4158EF801868D8F3F09F49B
:100F0000168E0F900FBEBE016C5F7F4FCE01019613
:100F10000E94140C81112AC0C8010E945305882325
:100F2000F9F0F80180819181892B51F40FB6F89482
:100F30000F92848195810E944A0CE82E0F900FBE7B
:100F40006C817D81C80141960E94AF0BC8010E944F
:100F5000CD050E94CF0A811192CF0E948B048FCFC2
:100F6000C8010E94CD050E94CF0A89CFC8010E9406
:100F7000CD050E94CF0AC8010E945305882309F4B9
:100F80007ECFEE2081F00FB6F8940F92C8010E9438
:100F90004305682FF801848195810E94FC0C0F9015
:100FA0000FBE80E001C080E00F900F900F900F9077
:100FB0000F90DF91CF911F910F91FF90EF900895C7
:100FC000E091D006F091D1068081811107C08FEFAA
:100FD0009FEF9093B0068093AF060895E091D006FE
:100FE000F091D1060580F681E02D8081918190936A
:100FF000B0068093AF060895CF93DF93EC018F89FD
:10100000988D0E941E03CE010E941E03DF91CF9196
:1010100008956F927F928F929F92AF92BF92CF92DC
:10102000DF92EF920F931F93CF93DF93CDB7DEB78D
:101030004C01D50157968D919C91589721503109BB
:101040003C01620E731E6115710589F416C0822F72
:1010500090E0FB01E80FF91F3081D501A80FB91FFF
:1010600059963C938081882329F02F5F01C020E0AE
:10107000283068F3F50110A203C0D50159961C92DF
:10108000B3E0BE1520F40F2EF3E0EF2EF02DF501A6
:10109000E68AE1A212A2C50102960E946A03C50176
:1010A0000C960E946A03D5011996BC92AE921897CD
:1010B00084E090E08E1991091D969C938E931C9765
:1010C0005396BC92AE92529784E0F501B396DF013D
:1010D0001D928A95E9F7F50117A2A801B401C30191
:1010E0000E94F003D5018D939C93C114D10419F093
:1010F000F601B182A082DF91CF911F910F91EF9005
:10110000DF90CF90BF90AF909F908F907F906F9027
:101110000895CF93C0E010C08C2F90E09C01220F67
:10112000331F220F331F220F331F820F931F8C5147
:10113000994F0E945C03CF5FC43070F38BED96E053
:101140000E945C0382ED96E00E945C0385EC96E0D1
:101150000E945C038CEB96E00E945C038BED96E0B2
:101160009093D1068093D00682ED96E09093CF06BF
:101170008093CE06CF910895CF93DF93EC010FB605
:10118000F8940F928091BA068F5F8093BA0680918F
:10119000080790910907892B59F4D0930907C09348
:1011A00008078091BA06813099F40E94890810C01E
:1011B0008091B60681110CC0E0910807F0910907F3
:1011C00096898E89891720F0D0930907C093080764
:1011D0008091B1068F5F8093B1068E899091B7069A
:1011E000981710F48093B70690E09C01220F331FEC
:1011F000220F331F220F331F820F931FBE016E5F1A
:101200007F4F8C51994F0E946E030F900FBE8091BB
:10121000B606882351F0E0910807F09109079689F6
:101220008E89981710F40E948B04DF91CF91089556
:10123000CF93DF931CC00FB6F8940F92E091C106D4
:10124000F091C206C681D781CE0102960E94C003EA
:101250008091BA0681508093BA068091BB06815076
:101260008093BB060F900FBECE010E94FC078091B9
:10127000BB068111E0CFDF91CF9108950E9418093C
:101280008091E4068230D0F30E948B04F7CF0F9355
:101290001F93CF93DF93EC010091B8061091B9062C
:1012A000809108079091090702960E94C003C00F21
:1012B000D11FE0910807F0910907D383C283C017BB
:1012C000D10768F460910807709109078091CE06F4
:1012D0009091CF066E5F7F4F0E948F0317C0609181
:1012E0000807709109078091D0069091D1066E5F32
:1012F0007F4F0E948F038091AF069091B006C81770
:10130000D90720F4D093B006C093AF06DF91CF91F8
:101310001F910F9108952F923F924F925F926F927B
:101320007F928F929F92AF92BF92CF92DF92EF9275
:10133000FF920F931F93CF93DF933C011B015A0140
:101340002901CA010E9478026C01892B71F088E2A0
:1013500090E00E947802EC01892B19F0D88ECF8A98
:1013600006C0C6010E941E0302C0C0E0D0E0209764
:1013700091F0950140E050E0812C912C5E016701D5
:10138000E02E8201B101C3010E940908CE010E9432
:10139000BC0881E001C08FEFDF91CF911F910F91C9
:1013A000FF90EF90DF90CF90BF90AF909F908F9085
:1013B0007F906F905F904F903F902F900895EF92A5
:1013C000FF920F930F2EFDEAEF2EF6E0FF2EF02D89
:1013D00000E020E030E045E550E06BEB70E08EE3AC
:1013E00099E00E948B09813081F4F8948FEF9FEF90
:1013F0009093B0068093AF0681E08093B60610927A
:10140000B9061092B8060E945C04809160000F91AA
:10141000FF90EF9008958091AC068F5F8093AC06AB
:101420000895DF92EF92FF920F931F93CF93DF9374
:101430008091AC0681119DC0E090B806F090B9068D
:101440008FEFE81AF80AF092B906E092B806E114B4
:10145000F104B9F48091D0069091D1062091CE0686
:101460003091CF063093D1062093D0069093CF06CB
:101470008093CE068091B2068F5F8093B2060E9461
:10148000E0078091AF069091B006E816F90628F4BF
:10149000D12C53C0DD24D39401C0D12CE091D006CF
:1014A000F091D1068081811107C08FEF9FEF90935B
:1014B000B0068093AF0641C0E091D006F091D1060E
:1014C0000580F681E02DC681D7818A819B81E8164F
:1014D000F90628F49093B0068093AF062EC08E01D3
:1014E0000E5F1F4FC8010E94C0038C899D89892B04
:1014F00021F0CE010C960E94C0038E899091B70610
:10150000981710F48093B70690E09C01220F331FC8
:10151000220F331F220F331F820F931FB8018C51EC
:10152000994F0E946E039E89E0910807F091090788
:101530008689981708F0AECFB1CFE0910807F091F7
:101540000907868990E0FC01EE0FFF1FEE0FFF1FD9
:10155000EE0FFF1F8E0F9F1FFC01EC51F94F808192
:10156000823010F0DD24D3948091B30681110CC039
:101570000DC08091B4069091B50601969093B50682
:101580008093B406D12C02C0DD24D3948D2DDF913D
:10159000CF911F910F91FF90EF90DF9008950F93DF
:1015A0001F93CF93DF930FB6F8940F928091AC0600
:1015B00081508093AC068091AC0681115CC0809113
:1015C000BA06811133C05AC0E091CA06F091CB0629
:1015D000C681D781CE010C960E94C0038E010E5F9A
:1015E0001F4FC8010E94C0038E899091B7069817BB
:1015F00010F48093B70690E09C01220F331F220F56
:10160000331F220F331F820F931FB8018C51994F44
:101610000E946E039E89E0910807F0910907868970
:10162000981730F081E08093B30602C0C0E0D0E0AC
:101630008091C5068111C8CFCD2B11F00E94E00723
:10164000C091B406D091B506209769F00E94110AA6
:10165000882319F081E08093B3062197B9F710929F
:10166000B5061092B4068091B306882331F00E942B
:101670008B0481E003C080E001C080E00F900FBECA
:10168000DF91CF911F910F910895CF93DF93EC01DC
:10169000892B49F00E940B0A60E0CE010E944709A5
:1016A0000E94CF0A01C080E0811102C00E948B0419
:1016B000DF91CF9108958091AC06882321F081E0DD
:1016C0008093B30608951092B3062091B70601C027
:1016D0002150822F90E0FC01EE0FFF1FEE0FFF1F45
:1016E000EE0FFF1FE80FF91FEC51F94F3081332344
:1016F00079F3AC01440F551F440F551F440F551F7C
:10170000480F591FDF010180F281E02D0280F38133
:10171000E02D1296FC93EE9311974951594FE4171F
:10172000F50729F442815381FD0152834183FC0175
:10173000EE0FFF1FEE0FFF1FEE0FFF1F8E0F9F1FFD
:10174000FC01EC51F94F0180F281E02D86819781F7
:1017500090930907809308072093B7060895CF93C5
:10176000DF93EB016091080770910907645F7F4F79
:101770000E948F0361E0CE010E944709DF91CF9163
:1017800008950F931F93CF93DF93DC011596ED918E
:10179000FC911697C681D7818E01045F1F4FC80147
:1017A0000E94C0038091AC0681111CC00A5011092F
:1017B000C8010E94C0038E899091B706981710F453
:1017C0008093B70690E09C01220F331F220F331F36
:1017D000220F331F820F931FB8018C51994F0E9423
:1017E0006E0305C0B80185EC96E00E946E039E89E9
:1017F000E0910807F09109078689891720F481E0B4
:101800008093B30601C080E0DF91CF911F910F91CB
:1018100008952091B206FC0120832091B8063091F2
:10182000B906328321830895CF93DF930FB6F894DE
:101830000F924091B8065091B906EC0129813A8186
:10184000DA01A21BB30BF881E091B206FE1741F05A
:101850004217530728F0FB011182108281E011C06A
:10186000EB0128813981A217B30740F42A1B3B0BF7
:10187000398328830E94090C80E003C019821882F2
:1018800081E00F900FBEDF91CF91089581E08093AA
:10189000B30608950F931F93CF93DF93FC01892B19
:1018A00009F462C02689A0910807B09109075696ED
:1018B0008C91281708F04EC084859585992364F093
:1018C000A0910807B091090756963C9184E090E0FA
:1018D000831B9109958784878285938530E0A901D0
:1018E000440F551F440F551F440F551F240F351F1C
:1018F0002C51394F8217930721F58F01EF01229662
:10190000CE010E94C003E0910807F0910907868983
:10191000F801868B9091B706981710F48093B7065C
:1019200090E09C01220F331F220F331F220F331F21
:10193000820F931FBE018C51994F0E946E0381E06C
:1019400016C0A0910807B091090756968C91868B16
:1019500081E00DC091A1E0910807F0910907868907
:10196000981720F080E003C080E001C081E0DF91A3
:10197000CF911F910F9108950F931F93CF93DF93F2
:10198000FC01892B79F182A1815082A3268991A142
:10199000291751F181112AC0EF018F010E5F1F4FEE
:1019A000C8010E94C00389A18E8B24E030E0281B6F
:1019B00031093D872C879091B706981710F48093D2
:1019C000B70690E09C01220F331F220F331F220F16
:1019D000331F820F931FB8018C51994F0E946E03E1
:1019E00081E005C080E003C080E001C080E0DF91BD
:1019F000CF911F910F9108950F931F93CF93DF9372
:101A0000FC01892B09F443C091A1961708F4962F85
:101A100086899817E1F122A12130C9F5968B24859A
:101A20003585332334F024E030E0291B3109358734
:101A300024872285338590E0AC01440F551F440F65
:101A4000551F440F551F840F951F8C51994F281710
:101A50003907E9F4EF018F010E5F1F4FC8010E94A3
:101A6000C0038E899091B706981710F48093B7063B
:101A700090E09C01220F331F220F331F220F331FD0
:101A8000820F931FB8018C51994F0E946E03DF9112
:101A9000CF911F910F9108958091080790910907A8
:101AA000892B39F0E0910807F091090782A18F5F37
:101AB00082A380910807909109070895FB01DC013A
:101AC00002C001900D9241505040D8F70895F8940B
:021AD000FFCF46
:101AD20003312077696C6C2072656C6561736500F7
:101AE200312061667465722074696D65206F75744A
:101AF20000312077696C6C20626C6F636B0032205E
:101B020077696C6C2072656C656173650032206167
:101B1200667465722074696D65206F757400322079
:101B220077696C6C20626C6F636B0049444C4500B2
:00000001FF
