S00C00006C6162332E73726563B6
S11300000C942A000C9447000C9447000C9447006D
S11300100C9447000C9447000C9447000C94C704BC
S11300200C9447000C9447000C9447000C94470030
S11300300C9447000C9447000C9447000C94470020
S11300400C9447000C9447000C9447000C94470010
S11300500C94470011241FBECFE5D8E0DEBFCDBF0E
S113006010E0A0E6B0E0E0EAF7E102C005900D92EE
S1130070AE36B107D9F726E0AEE6B0E001C01D9276
S1130080AA3BB207E1F70E9422010C94CE0B0C9418
S11300900000CF93C82F65B36F70807F682B82E018
S11300A00E947C0185B38E7F85BB85B3846085BB4C
S11300B089EF90E00197F1F700C0000085B38B7FD2
S11300C085BB65B320E1C29FC00111246F70682B0A
S11300D082E00E947C0185B38E7F85BB85B38460FA
S11300E085BB89EF90E00197F1F700C0000085B36C
S11300F08B7F85BBCF91089561E082E00E9450011F
S113010060E082E00E947C0183E30E94490082E374
S11301100E94490088E20E9449008EE00E94490042
S113012081E00E94490083EF91E00197F1F700C05C
S1130130000086E00E9449000895CF93C82F65B35C
S11301406F70807F682B82E00E947C0185B38160A0
S113015085BB85B3846085BB89EF90E00197F1F797
S113016000C0000085B38B7F85BB65B320E1C29FCF
S1130170C00111246F70682B82E00E947C0185B35A
S1130180816085BB85B3846085BB89EF90E001976E
S1130190F1F700C0000085B38B7F85BBCF91089534
S11301A00F931F93CF93DF938C01C0E0D0E003C083
S11301B00E949D002196F801EC0FFD1F80818111A2
S11301C0F7CFDF91CF911F910F91089581E00E94A5
S11301D049000895CF93DF9300D0CDB7DEB781E611
S11301E090E09A83898320E048EC50E0BE016F5F81
S11301F07F4F8091B8069091B9060E941006F3CF04
S1130200CF93DF9300D0CDB7DEB71A82198248ECC2
S113021050E0BE016F5F7F4F8091B8069091B906A0
S11302200E94A20689819A810E94D0002FE78AE168
S113023096E0215080409040E1F700C000000E9409
S1130240E600E5CFEF92FF920F9340E061E088E093
S11302500E94EB059093B9068093B8060E947C0037
S1130260E12CF12C02E020E030E045E550E060E0D4
S113027070E08AEE90E00E94DC0801E020E030E0CB
S113028045E550E060E070E080E091E00E94DC0829
S11302900E94300980E090E00F91FF90EF90089564
S11302A0813079F028F08230A9F08330E1F00895AC
S11302B0613019F48FEF8ABB089561111CC01ABA1A
S11302C00895613019F48FEF87BB0895611113C04D
S11302D017BA0895613019F48FEF84BB0895611142
S11302E00AC014BA0895613019F48FEF81BB0895E0
S11302F0611101C011BA0895813041F028F08230B3
S113030039F0833039F008956BBB089568BB0895C4
S113031065BB089562BB0895EAE7F0E0AEE7B0E09C
S1130320B183A08313821282E6E5F6E0F0937900AC
S1130330E0937800138212821182108288ED95E096
S113034013969C938E931297ED93FC939093750060
S113035080937400909377008093760080E090E817
S113036090936F0080936E000895CF93DF93EC0118
S1130370AAE7B0E001C0DF01ED91FC911197EC1701
S1130380FD07C8F312968D919C9113979D01280F38
S1130390391FC217D30749F42A813B81820F931F67
S11303A013969C938E931297ED018A819B819E01F3
S11303B0280F391FE217F307C1F420917800309118
S11303C07900E217F30771F022813381820F931FC2
S11303D09B838A83ED91FC9111978081918199830C
S11303E0888305C03983288302C0F983E883CA1748
S11303F0DB0711F0CD93DC93DF91CF910895EF9259
S1130400FF920F931F93CF93DF938C010E945C099B
S11304108091780090917900892B11F40E948C01CD
S113042080916E0090916F0080239123892B09F0B5
S113043077C00115110549F0C8010496081719077A
S113044018F000E010E001C08C010115110509F459
S11304506AC080917600909177008017910708F424
S113046065C0C0917A00D0917B00EAE7F0E002C059
S1130470FE01EC018A819B818017910720F4888119
S113048099810097A9F78091780090917900C81715
S1130490D90709F44EC0E080F18084E0E80EF11C35
S11304A088819981918380832A813B81201B310B30
S11304B02930310550F0CE01800F911FFC013383A8
S11304C022831B830A830E94B5012A813B81809188
S11304D0760090917700821B930B90937700809322
S11304E0760040917400509175008417950720F4AC
S11304F0909375008093740080916E0090916F00CA
S1130500282B392B3B832A8319821882809172000D
S113051090917300019690937300809372000BC0C6
S1130520E12CF12C08C0E12CF12C05C0E12CF12CBC
S113053002C0E12CF12C0E94200AC701DF91CF9167
S11305401F910F91FF90EF9008950F931F93CF93F6
S1130550DF93009799F1EC0124974A815B81209104
S11305606E0030916F00BA0162237323672B31F15F
S113057068817981672B11F52095309524233523E3
S11305803B832A830E945C098A819B8120917600A7
S113059030917700820F931F9093770080937600B9
S11305A0CE010E94B5018091700090917100019676
S11305B090937100809370000E94200ADF91CF9184
S11305C01F910F910895FC010396928381832FEF6D
S11305D03FEF3483238396838583908787831082B8
S11305E00895FC01118610860895CF93DF939C0132
S11305F0FB01DC011196CD91DC911297D383C28368
S11306008C819D81958384838C819D81DC011396EB
S11306107C936E9312977D836C8331872087F901D5
S113062080818F5F8083DF91CF910895CF93DF9393
S1130630EB01488159814F3F2FEF520721F4FC0110
S1130640A781B0850DC0DC01139601C0DF011296AD
S1130650ED91FC9113972081318142175307B0F734
S11306601296ED91FC911397FB83EA83D583C4839F
S1130670BD83AC831396DC93CE93129799878887B6
S1130680FC0120812F5F2083DF91CF910895CF93C8
S1130690DF93FC01A085B185C281D38184819581DA
S11306A09D838C83C481D581828193819B838A833A
S11306B011968D919C911297E817F90731F4848172
S11306C0958112969C938E931197118610868C9126
S11306D081508C938C91DF91CF9108951BBC8EE057
S11306E08ABD8BE08EBD89B7806189BF089531E1F1
S11306F0FC013083319722E220833197A3E3A08366
S1130700319760833197708331971082319760E815
S1130710608331971082319762E06083319763E0A0
S11307206083319764E06083319765E0608331973B
S113073066E06083319767E06083319768E06083A7
S1130740319769E06083319760E16083319730834A
S1130750319732E13083319733E13083319734E19B
S11307603083319735E13083319736E130833197E7
S113077037E13083319738E13083319739E1308381
S1130780319730E23083319731E2308331972083DF
S1130790319723E2208331974083319750833197F7
S11307A026E22083319727E22083319728E22083B1
S11307B0319729E22083319720E32083319721E385
S11307C02083869708950E946E03A091B606B09187
S11307D0B706CD91CDBFDD91DEBFFF91EF91DF91E3
S11307E0CF91BF91AF919F918F917F916F915F91C5
S11307F04F913F912F911F910F91FF90EF90DF90B8
S1130800CF90BF90AF909F908F907F906F905F90AC
S11308104F903F902F901F900F900FBE0F90089510
S113082081E008950F920FB6F8940F921F9211244D
S11308302F923F924F925F926F927F928F929F92EC
S1130840AF92BF92CF92DF92EF92FF920F931F93DA
S11308502F933F934F935F936F937F938F939F93C4
S1130860AF93BF93CF93DF93EF93FF93A091B6061B
S1130870B091B7060DB60D920EB60D920E94960A6F
S1130880A091B606B091B706CD91CDBFDD91DEBF84
S1130890FF91EF91DF91CF91BF91AF919F918F9194
S11308A07F916F915F914F913F912F911F910F9184
S11308B0FF90EF90DF90CF90BF90AF909F908F907C
S11308C07F906F905F904F903F902F901F900F906C
S11308D00FBE0F9008950F920FB6F8940F921F92C7
S11308E011242F923F924F925F926F927F928F9238
S11308F09F92AF92BF92CF92DF92EF92FF920F93AB
S11309001F932F933F934F935F936F937F938F9393
S11309109F93AF93BF93CF93DF93EF93FF93A091F4
S1130920B606B091B7060DB60D920EB60D920E94A2
S1130930620981110E94960AA091B606B091B70689
S1130940CD91CDBFDD91DEBFFF91EF91DF91CF91CE
S1130950BF91AF919F918F917F916F915F914F91D3
S11309603F912F911F910F91FF90EF90DF90CF90C7
S1130970BF90AF909F908F907F906F905F904F90BB
S11309803F902F901F900F900FBE0F9008950E94DC
S11309906B0418950FB6F8940F92FC01828D8111A7
S11309A002C081E001C080E00F900FBE08950FB631
S11309B0F8940F92FC01228D838D281302C081E0EC
S11309C001C080E00F900FBE08950F931F93CF9343
S11309D0DF93EC01042F1A8D4C8D41110CC08881DA
S11309E09981892B09F042C08C819D810E94850BDD
S11309F01D821C8242C0011117C050E08A819B8174
S1130A000E94C50B2C8D8A819B81820F911D9B8333
S1130A108A832C813D818217930750F188819981C3
S1130A209B838A8380E029C050E08E819F810E944D
S1130A30C50B8C8D90E09195819591092E813F8114
S1130A40280F391F3F832E83488159812417350786
S1130A5030F42C813D81820F931F9F838E8302305B
S1130A6049F4112349F0115080E007C080E005C02B
S1130A7080E003C080E001C080E01F5F1A8FDF9137
S1130A80CF911F910F910895FC01448D4423A9F047
S1130A9050E026813781240F351F378326838481D4
S1130AA095812817390720F0808191819783868367
S1130AB0CB01668177810E94C50B08951F93CF9364
S1130AC0DF93EC010FB6F8940F921E8D0BC0898949
S1130AD0882351F0CE0141960E94FC0A81110E94A4
S1130AE0810B115011169CF38FEF8E8F0F900FBE58
S1130AF00FB6F8940F921D8D0BC08885882351F092
S1130B00CE0108960E94FC0A81110E94810B1150AB
S1130B1011169CF38FEF8D8F0F900FBEDF91CF9145
S1130B201F910895CF93DF93EC010FB6F8940F92C1
S1130B30E881F9818B8D2C8D90E030E0829FA001BB
S1130B40839F500D929F500D11244E0F5F1F5D83A4
S1130B504C831A8EFB83EA830197289FA001299F67
S1130B60500D389F500D1124CF01840F951F9F8382
S1130B708E838FEF8D8F8E8F61110CC088858823B3
S1130B8089F0CE0108960E94FC0A882359F00E943D
S1130B90120408C0CE0108960E94E302CE014196D9
S1130BA00E94E3020F900FBE81E0DF91CF91089580
S1130BB00F931F93F801611103C01183008302C0D6
S1130BC051834083838F648F61E0CF010E9492053B
S1130BD01F910F910895DF92EF92FF920F931F934D
S1130BE0CF93DF93F82EE62ED42E869FC0011124D6
S1130BF04F960E94FF01EC01009749F08C012D2DC6
S1130C00AC01415E5F4F6E2D8F2D0E94D805CE0141
S1130C10DF91CF911F910F91FF90EF90DF90089596
S1130C20CF92DF92EF92FF920F931F93CF93DF93B4
S1130C3000D000D01F92CDB7DEB78C017B015D835D
S1130C404C83C22ED12C0FB6F8940F92F801928DDA
S1130C50838D981718F0F2E0CF1219C04C2DB7010C
S1130C60C8010E94E504F8019189992349F0C8015B
S1130C7041960E94FC0A882331F00E94120403C0AA
S1130C8081110E9412040F900FBE81E04DC08C812F
S1130C909D81892B21F40F900FBE80E045C0D110B7
S1130CA006C0CE0101960E94440BDD24D3940F901C
S1130CB00FBE0E945C090FB6F8940F92F801858D5F
S1130CC08F3F09F4158EF801868D8F3F09F4168E37
S1130CD00F900FBEBE016C5F7F4FCE0101960E9444
S1130CE04F0B81111BC0C8010E94D704882381F0D7
S1130CF06C817D81C80108960E94EA0AC8010E949D
S1130D005E050E94200A81119ECF0E9412049BCF8F
S1130D10C8010E945E050E94200A95CFC8010E9466
S1130D205E050E94200A80E00F900F900F900F90B4
S1130D300F90DF91CF911F910F91FF90EF90DF9073
S1130D40CF900895CF92DF92EF92FF920F931F936B
S1130D50CF93DF9300D000D01F92CDB7DEB78C01C4
S1130D606B015D834C83E12C0FB6F8940F92F8016C
S1130D70F28CFF20A9F0B601C8010E944405FA9440
S1130D80F801F28E8085882339F0C80108960E9404
S1130D90FC0A81110E9412040F900FBE81E053C01F
S1130DA08C819D81892B21F40F900FBE80E04BC074
S1130DB0E11006C0CE0101960E94440BEE24E39498
S1130DC00F900FBE0E945C090FB6F8940F92F801C1
S1130DD0858D8F3F09F4158EF801868D8F3F09F4B8
S1130DE0168E0F900FBEBE016C5F7F4FCE01019631
S1130DF00E944F0B81111BC0C8010E94CA048823A2
S1130E0081F06C817D81C80141960E94EA0AC80183
S1130E100E945E050E94200A8111A6CF0E9412043E
S1130E20A3CFC8010E945E050E94200A9DCFC8017D
S1130E300E945E050E94200AC8010E94CA048823F9
S1130E4009F492CF80E00F900F900F900F900F90C5
S1130E50DF91CF911F910F91FF90EF90DF90CF9092
S1130E600895E0917E06F0917F068081811107C08C
S1130E708FEF9FEF90935E0680935D060895E09157
S1130E807E06F0917F060580F681E02D80819181B8
S1130E9090935E0680935D060895CF93DF93EC01F3
S1130EA08F89988D0E94A502CE010E94A502DF9130
S1130EB0CF9108956F927F928F929F92AF92BF923B
S1130EC0CF92DF92EF920F931F93CF93DF93CDB71F
S1130ED0DEB74C01D50157968D919C9158972150BE
S1130EE031093C01620E731E6115710589F416C047
S1130EF0822F90E0FB01E80FF91F3081D501A80F84
S1130F00B91F59963C938081882329F02F5F01C033
S1130F1020E0283068F3F50110A203C0D5015996EA
S1130F201C92B3E0BE1520F40F2EF3E0EF2EF02D4B
S1130F30F501E68AE1A212A2C50102960E94F1021D
S1130F40C5010C960E94F102D5011996BC92AE928D
S1130F50189784E090E08E1991091D969C938E93C6
S1130F601C975396BC92AE92529784E0F501B396C7
S1130F70DF011D928A95E9F7F50117A2A801B401D2
S1130F80C3010E947703D5018D939C93C114D104AE
S1130F9019F0F601B182A082DF91CF911F910F91D8
S1130FA0EF90DF90CF90BF90AF909F908F907F9005
S1130FB06F900895CF93C0E010C08C2F90E09C01F7
S1130FC0220F331F220F331F220F331F820F931F51
S1130FD08E56994F0E94E302CF5FC43070F389E8C4
S1130FE096E00E94E30280E896E00E94E30283E731
S1130FF096E00E94E3028AE696E00E94E30289E812
S113100096E090937F0680937E0680E896E0909326
S11310107D0680937C06CF910895CF93DF93EC01F6
S11310200FB6F8940F92809168068F5F80936806DC
S11310308091B6069091B706892B59F4D093B706E0
S1131040C093B60680916806813099F40E94DA074D
S113105010C08091640681110CC0E091B606F09135
S1131060B70696898E89891720F0D093B706C09366
S1131070B60680915F068F5F80935F068E8990919C
S11310806506981710F48093650690E09C01220F82
S1131090331F220F331F220F331F820F931FBE01F2
S11310A06E5F7F4F8E56994F0E94F5020F900FBED0
S11310B080916406882351F0E091B606F091B7065A
S11310C096898E89981710F40E941204DF91CF91AB
S11310D00895CF93DF931CC00FB6F8940F92E0915C
S11310E06F06F0917006C681D781CE0102960E94E8
S11310F04703809168068150809368068091690651
S11311008150809369060F900FBECE010E944D0757
S1131110809169068111E0CFDF91CF9108950E94FB
S11311206908809192068230D0F30E941204F7CFAE
S11311300F931F93CF93DF93EC01009166061091F8
S113114067068091B6069091B70602960E944703FF
S1131150C00FD11FE091B606F091B706D383C283C6
S1131160C017D10768F46091B6067091B7068091F4
S11311707C0690917D066E5F7F4F0E94160317C018
S11311806091B6067091B70680917E0690917F06B5
S11311906E5F7F4F0E94160380915D0690915E06FC
S11311A0C817D90720F4D0935E06C0935D06DF917B
S11311B0CF911F910F9108952F923F924F925F927A
S11311C06F927F928F929F92AF92BF92CF92DF9253
S11311D0EF92FF920F931F93CF93DF933C011B0178
S11311E05A012901CA010E94FF016C01892B71F087
S11311F088E290E00E94FF01EC01892B19F0D88E5F
S1131200CF8A06C0C6010E94A50202C0C0E0D0E099
S1131210209791F0950140E050E0812C912C5E01E3
S11312206701E02E8201B101C3010E945A07CE0179
S11312300E940D0881E001C08FEFDF91CF911F91D3
S11312400F91FF90EF90DF90CF90BF90AF909F9061
S11312508F907F906F905F904F903F902F90089564
S1131260EF92FF920F930F2EFBE5EF2EF6E0FF2E89
S1131270F02D00E020E030E045E550E069E670E064
S11312808FE898E00E94DC08813081F4F8948FEFB5
S11312909FEF90935E0680935D0681E080936406E1
S11312A010926706109266060E94E3038091600024
S11312B00F91FF90EF90089580915A068F5F80936D
S11312C05A060895DF92EF92FF920F931F93CF93E4
S11312D0DF9380915A0681119DC0E0906606F090DC
S11312E067068FEFE81AF80AF0926706E09266063E
S11312F0E114F104B9F480917E0690917F06209167
S11313007C0630917D0630937F0620937E06909371
S11313107D0680937C06809160068F5F80936006D3
S11313200E94310780915D0690915E06E816F906E9
S113133028F4D12C53C0DD24D39401C0D12CE091E6
S11313407E06F0917F068081811107C08FEF9FEFA9
S113135090935E0680935D0641C0E0917E06F09115
S11313607F060580F681E02DC681D7818A819B8125
S1131370E816F90628F490935E0680935D062EC065
S11313808E010E5F1F4FC8010E9447038C899D89FF
S1131390892B21F0CE010C960E9447038E899091EF
S11313A06506981710F48093650690E09C01220F5F
S11313B0331F220F331F220F331F820F931FB801D5
S11313C08E56994F0E94F5029E89E091B606F091DF
S11313D0B7068689981708F0AECFB1CFE091B6066C
S11313E0F091B706868990E0FC01EE0FFF1FEE0F27
S11313F0FF1FEE0FFF1F8E0F9F1FFC01EE56F94FCC
S11314008081823010F0DD24D394809161068111B3
S11314100CC00DC080916206909163060196909372
S1131420630680936206D12C02C0DD24D3948D2DF3
S1131430DF91CF911F910F91FF90EF90DF9008956E
S11314400F931F93CF93DF930FB6F8940F9280916D
S11314505A06815080935A0680915A0681115CC0C5
S113146080916806811133C05AC0E0917806F091EA
S11314707906C681D781CE010C960E9447038E015E
S11314800E5F1F4FC8010E9447038E899091650625
S1131490981710F48093650690E09C01220F331F87
S11314A0220F331F220F331F820F931FB8018E5652
S11314B0994F0E94F5029E89E091B606F091B70615
S11314C08689981730F081E08093610602C0C0E0FD
S11314D0D0E0809173068111C8CFCD2B11F00E940A
S11314E03107C0916206D0916306209769F00E948B
S11314F06209882319F081E0809361062197B9F786
S1131500109263061092620680916106882331F07E
S11315100E94120481E003C080E001C080E00F90CB
S11315200FBEDF91CF911F910F91089580915A06BC
S1131530882321F081E0809361060895109261066A
S11315402091650601C02150822F90E0FC01EE0F2E
S1131550FF1FEE0FFF1FEE0FFF1FE80FF91FEE56E0
S1131560F94F3081332379F3AC01440F551F440FF5
S1131570551F440F551F480F591FDF010180F28189
S1131580E02D0280F381E02D1296FC93EE931197E7
S11315904B56594FE417F50729F442815381FD0155
S11315A052834183FC01EE0FFF1FEE0FFF1FEE0F6E
S11315B0FF1F8E0F9F1FFC01EE56F94F0180F28131
S11315C0E02D868197819093B7068093B606209389
S11315D065060895CF93DF93EB016091B606709191
S11315E0B706645F7F4F0E94160361E0CE010E943C
S11315F09808DF91CF9108950F931F93CF93DF93B2
S1131600DC011596ED91FC911697C681D7818E0168
S1131610045F1F4FC8010E94470380915A0681113D
S11316201CC00A501109C8010E9447038E89909179
S11316306506981710F48093650690E09C01220FCC
S1131640331F220F331F220F331F820F931FB80142
S11316508E56994F0E94F50205C0B80183E796E0C3
S11316600E94F5029E89E091B606F091B70686893C
S1131670891720F481E08093610601C080E0DF9146
S1131680CF911F910F91089520916006FC01208352
S11316902091660630916706328321830895CF93A3
S11316A0DF930FB6F8940F92409166065091670647
S11316B0EC0129813A81DA01A21BB30BF881E09194
S11316C06006FE1741F04217530728F0FB01118210
S11316D0108281E011C0EB0128813981A217B30780
S11316E040F42A1B3B0B398328830E94440B80E07F
S11316F003C01982188281E00F900FBEDF91CF9151
S1131700089581E08093610608950F931F93CF930A
S1131710DF93FC01892B79F182A1815082A3268970
S113172091A1291751F181112AC0EF018F010E5F98
S11317301F4FC8010E94470389A18E8B24E030E02B
S1131740281B31093D872C8790916506981710F462
S11317508093650690E09C01220F331F220F331FF4
S1131760220F331F820F931FB8018E56994F0E9488
S1131770F50281E005C080E003C080E001C080E0A4
S1131780DF91CF911F910F910895FB01DC0102C0FD
S113179001900D9241505040D8F70895F894FFCF2E
S11117A0034D61686D6F75640049444C45004B
S9030000FC
